:020000040000FA
:100000000C9460000C9488000C9488000C94880078
:100010000C9488000C9488000C9488000C94880040
:100020000C9488000C9488000C9488000C94880030
:100030000C9488000C9488000C9488000C94880020
:100040000C94F4020C9488000C9464030C943E030A
:100050000C9488000C9488000C9488000C94880000
:100060000C9488000C948800000102030405000031
:100070000008000201000003040700000000000067
:10008000000000000000250028002B0000000000F8
:10009000240027002A0004040404040404040202C7
:1000A00002020202030303030303010204081020F7
:1000B0004080010204081020010204081020960369
:1000C00011241FBECFEFD8E0DEBFCDBF22E0A4E9F0
:1000D000B1E001C01D92AF35B207E1F711E0A0E039
:1000E000B1E0E8E7FCE002C005900D92A439B10749
:1000F000D9F710E0C0E6D0E004C02197FE010E94CD
:100100002B06CF35D107C9F70E94E6030C943A06B7
:100110000C94000090E0FC01E655FF4F24918A56B4
:100120009F4FFC018491882399F090E0880F991FDC
:10013000FC01E457FF4FA591B491FC01EE57FF4F2E
:10014000859194918FB7F894EC91E22BEC938FBF4B
:10015000089590E0FC01E259FF4F2491FC01E6551F
:10016000FF4F3491FC01EA56FF4FE491EE23C9F0B2
:10017000222339F0233001F1A8F4213019F1223083
:1001800029F1F0E0EE0FFF1FEE57FF4FA591B4915C
:100190008FB7F894EC91611126C030953E233C93C3
:1001A0008FBF08952730A9F02830C9F0243049F7CF
:1001B000809180008F7D03C0809180008F77809335
:1001C0008000DFCF84B58F7784BDDBCF84B58F7D92
:1001D000FBCF8091B0008F778093B000D2CF809119
:1001E000B0008F7DF9CF3E2BDACF682F80913F0290
:1001F0000E94A90080915B0290915C02823091057F
:1002000038F0880F991F880F991F05970197F1F70C
:10021000089581E00C94F500682F80913E02909142
:100220003F0289130C94A90008953FB7F894809178
:100230009A0190919B01A0919C01B0919D0126B5DE
:10024000A89B05C02F3F19F00196A11DB11D3FBF0E
:10025000BA2FA92F982F8827BC01CD01620F711DDD
:10026000811D911D42E0660F771F881F991F4A95D7
:10027000D1F70895AF92BF92CF92DF92EF92FF92A3
:100280000F931F93CF93DF936C017B018B01040FBE
:10029000151FEB015E01AE18BF08C017D10759F05A
:1002A0006991D601ED91FC910190F081E02DC6019C
:1002B0000995892B79F7C501DF91CF911F910F9196
:1002C000FF90EF90DF90CF90BF90AF900895FC012A
:1002D000538D448D252F30E0842F90E0821B930BAB
:1002E000541710F0CF96089501970895FC01918D51
:1002F000828D981761F0A28DAE0FBF2FB11D5D9654
:100300008C91928D9F5F9F73928F90E008958FEFF5
:100310009FEF0895FC01918D828D981731F0828DA9
:10032000E80FF11D858D90E008958FEF9FEF089500
:10033000FC01918D228D892F90E0805C9F4F821B64
:1003400091098F73992708958EE991E00E94980191
:1003500021E0892B09F420E0822F089580E090E0CD
:10036000892B29F00E94A40181110C9400000895AA
:10037000FC01A48DA80FB92FB11DA35ABF4F2C911A
:10038000848D90E001968F739927848FA689B78911
:100390002C93A089B1898C91837080648C93938D08
:1003A000848D981306C00288F389E02D80818F7DAB
:1003B00080830895EF92FF920F931F93CF93DF9363
:1003C000EC0181E0888F9B8D8C8D98131AC0E88991
:1003D000F989808185FF15C09FB7F894EE89FF8960
:1003E0006083E889F98980818370806480839FBFFE
:1003F00081E090E0DF91CF911F910F91FF90EF90FE
:100400000895F62E0B8D10E00F5F1F4F0F7311270D
:10041000E02E8C8D8E110CC00FB607FCFACFE88948
:10042000F989808185FFF5CFCE010E94B801F1CF17
:10043000EB8DEC0FFD2FF11DE35AFF4FF0829FB7BC
:10044000F8940B8FEA89FB8980818062CFCFCF93AC
:10045000DF93EC01888D8823B9F0AA89BB89E889EC
:10046000F9898C9185FD03C0808186FD0DC00FB692
:1004700007FCF7CF8C9185FFF2CF808185FFEDCF10
:10048000CE010E94B801E9CFDF91CF9108958EBDD2
:1004900000000DB407FEFDCF8EB50895FC0101905C
:1004A0000020E9F73197AF01481B590BBC018EE9D9
:1004B00091E00C943A01CF93DF930E944E02EC013D
:1004C00088E191E00E944E028C0F9D1FDF91CF9139
:1004D00008950F931F9300914002109141022091C3
:1004E00042023091430240E052E16AE770E080E06E
:1004F000041715072607370740F476956795579533
:1005000047958F5F8630A1F787E0982F906A969580
:10051000809581709CBD8DBD80E01F910F910C94E2
:10052000F500CF93DF93D82FC62F0E9469028D2F3D
:1005300080620E944702809344028C2F0E944702EF
:10054000DF91CF910C940901CF93C82F0E946902CB
:100550008C2F0E944702809344028FEF0E94470233
:10056000C82F0E9409018C2FCF910895FF920F93FD
:100570001F93CF93DF93C82FF62E072F142F0E94BF
:1005800069028C2F80620E94470280934402CF2D23
:10059000D02F115020F089910E944702FACFDF91AD
:1005A000CF911F910F91FF900C940901CF93C82F09
:1005B0000E9469028C2F0E94470280934402CF91CF
:1005C0000C94090181EE0E94D602809144020895A4
:1005D0000E94690280E50E9447028093440283E7FB
:1005E0000E9447020C9409011F920F920FB60F92BE
:1005F00011242F933F938F939F93AF93BF93809139
:10060000960190919701A0919801B0919901309134
:10061000950123E0230F2D3758F50196A11DB11D3B
:10062000209395018093960190939701A093980150
:10063000B093990180919A0190919B01A0919C01A6
:10064000B0919D010196A11DB11D80939A019093D7
:100650009B01A0939C01B0939D01BF91AF919F918D
:100660008F913F912F910F900FBE0F901F90189573
:1006700026E8230F0296A11DB11DD2CF1F920F9223
:100680000FB60F9211242F933F934F935F936F9365
:100690007F938F939F93AF93BF93EF93FF938EE9D5
:1006A00091E00E94B801FF91EF91BF91AF919F91AE
:1006B0008F917F916F915F914F913F912F910F900B
:1006C0000FBE0F901F9018951F920F920FB60F92AA
:1006D00011242F938F939F93EF93FF93E091AE019B
:1006E000F091AF018081E091B401F091B50182FDFC
:1006F0001BC090818091B7018F5F8F732091B801EB
:10070000821741F0E091B701F0E0E256FE4F958F7D
:100710008093B701FF91EF919F918F912F910F904F
:100720000FBE0F901F9018958081F4CFEEE9F1E095
:100730001382128288EE93E0A0E0B0E08483958378
:10074000A683B7838AE091E09183808385EC90E073
:100750009587848784EC90E09787868780EC90E08B
:10076000918B808B81EC90E0938B828B82EC90E07C
:10077000958B848B86EC90E0978B868B118E128EF6
:10078000138E148EECE3F2E088E0828389E08383A9
:1007900080E896E9A8E9B0E084839583A683B783CF
:1007A00080E28187158A168A85E0808F81E0818FBB
:1007B000128E85E090E0A0E0B0E0878F90A3A1A327
:1007C000B2A38BE392E0918380830895789484B5FB
:1007D000826084BD84B5816084BD85B5826085BD3D
:1007E00085B5816085BD80916E00816080936E00CB
:1007F00010928100809181008260809381008091BD
:10080000810081608093810080918000816080936D
:1008100080008091B10084608093B1008091B0002D
:1008200081608093B00080917A00846080937A0028
:1008300080917A00826080937A0080917A00816052
:1008400080937A0080917A00806880937A00109279
:10085000C100E091AE01F091AF0182E08083E091B0
:10086000AA01F091AB011082E091AC01F091AD01D1
:100870008FEC80831092B601E091B201F091B30148
:1008800086E08083E091B001F091B10180818061C8
:100890008083E091B001F091B10180818860808314
:1008A000E091B001F091B101808180688083E09196
:1008B000B001F091B10180818F7D8083CFB7F89432
:1008C00080919401811124C0E0EAF0E08491E4EB8E
:1008D000F0E09491E82FF0E0EE0FFF1FE457FF4F98
:1008E000A591B491EC91E92321F461E08AE00E94A2
:1008F000A9008AE00E948A008CB580618CBD8CB50D
:1009000080648CBD8DE00E948A008BE00E948A008A
:10091000809194018F5F80939401CFBF80913E02BC
:100920008F3F09F464C190913F029F3F09F45FC17A
:10093000891731F00E948A0080913F020E948A004C
:1009400080E00E940C0181E00E94F5000E941501E8
:100950004B015C0135E0C32ED12CE12CF12C0E941F
:100960001501681979098A099B09683E7340810558
:100970009105A8F321E0C21AD108E108F10888EE38
:10098000880E83E0981EA11CB11CC114D104E1049F
:10099000F10429F76FE584E00E94910286E00E944D
:1009A000A40245E550E060E070E0409357025093A8
:1009B00058026093590270935A02682F677D86E04F
:1009C0000E94910286E00E94A4028DE10E94A4028E
:1009D000C82F0E94E8028DE10E94A40291E0C81392
:1009E00090E090935102882341F0C81302C00E9406
:1009F000E80260E08DE10E9491021092530260E0F3
:100A00008CE10E949102109255026FE381E00E94F6
:100A1000910263E082E00E94910280E280934502AD
:100A2000C1E1609145028C2F0E949102CF5FC731D6
:100A3000C1F763E083E00E94910285E08093540255
:100A40006CE40E94910260E787E00E94910282EECE
:100A50000E94D6020E94E2026CE080E00E949102B5
:100A600080E00E94A4028093500281FD0BC0682F99
:100A700062606093500280E00E9491028BE19EE4EC
:100A80000197F1F7809150028E3009F0B0C040918B
:100A9000540260E071E08AE00E94B6024091540284
:100AA00060E071E080E10E94B6024091540250E0A3
:100AB00060E071E08BE492E00E94310686E00E94E3
:100AC000A402887F682F616086E00E94910280E026
:100AD0000E940C018091570290915802823091053A
:100AE00008F08AC08091530281110E94E202609155
:100AF00050026E7F6093500280E00E94910240910C
:100B000054026BE472E08AE00E94B60282E00E9426
:100B1000A402E8E6F0E0E49161E070E001C0660F55
:100B2000EA95EAF7682B82E00E9491028AE391E05D
:100B30000E945B0200E010E08EE991E00E949801C3
:100B4000892B09F479C08EE991E00E947601B82ED4
:100B500080915502C0E0D1E0811106C0C0914502EC
:100B6000DC2FC111D1E0CD1B0E94690280EA0E94F6
:100B7000470280934402DD2319F08B2D0E94470227
:100B8000C15080E0CF3FD1F70E94090181E00E946F
:100B90000C018FB7F894C0909601D0909701E09027
:100BA0009801F09099018FBF8FEF0E94D60280913B
:100BB0004402807349F52FB7F89480919601909183
:100BC0009701A0919801B09199012FBF8C199D09AF
:100BD000AE09BF0980369105A105B10528F381E072
:100BE0008093560287E691E00E945B0225C08BE16C
:100BF00091E00E945B02FFCF880F991F880F991F19
:100C000005970197F1F76ECF80E00E940C0160E735
:100C100087E00E9491028091440284FD19C080E621
:100C200091E00E944E026B2D8EE991E00E94DA0164
:100C300088E191E00E944E020115110509F47CCF74
:100C40000E94A401882309F477CF0E94000074CF8A
:100C50000E94E202C7CFEE0FFF1F0590F491E02D36
:100C60000994FB01DC0102C001900D9241505040FB
:100C7000D8F70895F894FFCF3030303031000000BD
:100C80000000DA013A0167012702980176018A0122
:100C90000D0A004E524632342068617264776172E8
:100CA00065206E6F7420726573706F6E64696E6715
:100CB00021005472616E736D69747465722052659F
:100CC0006164792E205479706520772C20612C2066
:100CD000732C20642C20780053656E743A200054E5
:100CE00072616E736D697373696F6E204661696CB2
:100CF00065642028436865636B20776972696E6755
:0C0D0000206F7220706F77657229000070
:107E0000112484B714BE81FFF0D085E080938100F7
:107E100082E08093C00088E18093C10086E0809377
:107E2000C20080E18093C4008EE0C9D0259A86E02C
:107E300020E33CEF91E0309385002093840096BBD3
:107E4000B09BFECF1D9AA8958150A9F7CC24DD24C4
:107E500088248394B5E0AB2EA1E19A2EF3E0BF2EE7
:107E6000A2D0813461F49FD0082FAFD0023811F036
:107E7000013811F484E001C083E08DD089C08234E0
:107E800011F484E103C0853419F485E0A6D080C0E4
:107E9000853579F488D0E82EFF2485D0082F10E0AE
:107EA000102F00270E291F29000F111F8ED06801E7
:107EB0006FC0863521F484E090D080E0DECF843638
:107EC00009F040C070D06FD0082F6DD080E0C81688
:107ED00080E7D80618F4F601B7BEE895C0E0D1E017
:107EE00062D089930C17E1F7F0E0CF16F0E7DF06D8
:107EF00018F0F601B7BEE89568D007B600FCFDCFD4
:107F0000A601A0E0B1E02C9130E011968C91119780
:107F100090E0982F8827822B932B1296FA010C0160
:107F200087BEE89511244E5F5F4FF1E0A038BF0790
:107F300051F7F601A7BEE89507B600FCFDCF97BE46
:107F4000E89526C08437B1F42ED02DD0F82E2BD052
:107F50003CD0F601EF2C8F010F5F1F4F84911BD097
:107F6000EA94F801C1F70894C11CD11CFA94CF0C13
:107F7000D11C0EC0853739F428D08EE10CD085E9AC
:107F80000AD08FE07ACF813511F488E018D01DD067
:107F900080E101D065CF982F8091C00085FFFCCF94
:107FA0009093C60008958091C00087FFFCCF809118
:107FB000C00084FD01C0A8958091C6000895E0E648
:107FC000F0E098E1908380830895EDDF803219F02E
:107FD00088E0F5DFFFCF84E1DECF1F93182FE3DFCA
:107FE0001150E9F7F2DF1F91089580E0E8DFEE27F6
:047FF000FF270994CA
:027FFE00040479
:00000001FF
